:020000040000FA
:060000000A128A11122809
:10000800FE00030E83120313B8000408B9000A089F
:10001800BA007F08BB000A128A15702F0A128A11CB
:1000280015288317D030FD000730FE00AC30FF00E4
:10003800903084000A128A11F0270A128A11831359
:10004800CC30FD000F30FE000E30FF00C0308400C1
:100058000A128A11F0270A128A115430FD000F3053
:10006800FE005830FF003C3084000A128A11F02745
:100078000A128A11D401D501D601D701D801D901B4
:1000880083010A128A15892F83160313B900BA014E
:10009800BB010830B3000030B400292939088400B6
:1000A80083130008AF00840A0008B000840A00081F
:1000B800B100840A0008B200B21B632864286F28C4
:1000C8000130BA070318BB0A0030BB073B08B6006B
:1000D8003A08B5007E280130BA070318BB0A003079
:1000E800BB070730AF003A082F02B5003B090318D9
:1000F800013EB6003508C03E840000088312031391
:100108008500831603133408A1003308A0003B08B8
:10011800A3003A08A2000A128A11F8260A128A11C4
:10012800831603132108BB002008BA00390884008D
:1001380083130008AF00840A0008B000840A00088E
:10014800B100840A0008B20002300310AF0DB00DF0
:10015800B10DB20DFF3E031DA9283208A3003108D6
:10016800A2003008A1002F08A0000030A70000302E
:10017800A6000B30A500B830A4000A128A117C230F
:100188000A128A11831603132308BF002208BE002F
:100198002108BD002008BC003F083E043D043C0483
:1001A800031DD728D828E0280030BF000030BE0043
:1001B8000030BD000130BC003F08031DF2283E0896
:1001C800031DF22807303D02031DEE28D1303C0202
:1001D800031DEE28031CF128F228FC2800308316A2
:1001E8000313BF000030BE000730BD00D030BC0094
:1001F80083160313B701B8010E29000000000000A0
:1002080000000000013083160313B7070318B80A6B
:100218000030B8073708AF003808B0000030B01B0E
:10022800FF30B100B2003F083202031D25293E0805
:100238003102031D25293D083002031D25293C08EC
:100248002F02031C2829292901294C084D04031DC4
:100258002E292F2952280800F50101300A128A1187
:100268009B260A128A110A128A1534270A128A1141
:1002780001300A128A11F5240A128A118312031313
:10028800B601B7010A128A15C7270A128A11831202
:100298000313AF002F08D90059088400783083135E
:1002A8000006031D582959296C290A128A15FC26AB
:1002B8000A128A11F50101300A128A119B260A12C4
:1002C8008A1119300A128A11F5240A128A11152A7C
:1002D800590884003D300006031D732974298729B5
:1002E8000A128A151A270A128A11F50101300A1210
:1002F8008A119B260A128A1113300A128A11F524D0
:100308000A128A11152AB401B5010130B200003071
:10031800B300590884002D300006031D942995293F
:10032800D929FF30B200FF30B3000130B4070318F9
:10033800B50A0030B507D9293708F1003608F000AA
:100348000A30F2000030F3000A128A15A2270A12B6
:100358008A11700883120313AF007108B0003408C3
:100368005907B1003108840083130008D03EF0001B
:10037800FF3003180030F1003308F3003208F200B0
:100388000A128A15A2270A128A1170088312031307
:100398002F07B60071080318710A3007B70001303B
:1003A800B4070318B50A0030B50734085907AF0079
:1003B8002F08840083130008031DE329E429A029DA
:1003C800360883160313C8008312031337088316ED
:1003D8000313C9000030C91BFF30CA00CB00F50168
:1003E80001300A128A119B260A128A110B300A124E
:1003F8008A11F5240A128A11831203133708A100FF
:100408003608A0000330AF002F08A2000A128A1194
:10041800CA220A128A111E300A128A11F5240A12F7
:100428008A1108008312031307108714071587150C
:10043800061A1F2A202A262A061E232A242A202AA8
:100448003C08C92A861A292A2A2A302A861E2D2AD1
:100458002E2A2A2A3D08C92A061B332A342A3A2A70
:10046800061F372A382A342A3E08C92A861B3D2AFD
:100478003E2A442A861F412A422A3E2A3F08C92A80
:100488000714871007158715061A4B2A4C2A522A73
:10049800061E4F2A502A4C2A4008C92A861A552A6D
:1004A800562A5C2A861E592A5A2A562A4108C92AD7
:1004B800061B5F2A602A662A061F632A642A602AA6
:1004C8004208C92A861B692A6A2A702A861F6D2A49
:1004D8006E2A6A2A4308C92A071487140711871540
:1004E800061A772A782A7E2A061E7B2A7C2A782AE8
:1004F8004408C92A861A812A822A882A861E852AB9
:10050800862A822A4508C92A061B8B2A8C2A922AFF
:10051800061F8F2A902A8C2A4608C92A861B952AE4
:10052800962A9C2A861F992A9A2A962A4708C92A0F
:100538000714871407158711061AA32AA42AAA2ABA
:10054800061EA72AA82AA42A4808C92A861AAD2A54
:10055800AE2AB42A861EB12AB22AAE2A4908C92A66
:10056800061BB72AB82ABE2A061FBB2ABC2AB82AE5
:100578004A08C92A861BC12AC22AC82A861FC52A30
:10058800C62AC22A4B08C92A6E30080026308400C1
:1005980083120313540883138000840A55088000CB
:1005A800840A56088000840A57088000840A58087C
:1005B80080000430AD000030AE00AB01AC01A11FDB
:1005C800E62AE72A272BF501F50A2D300A128A11A7
:1005D8009B260A128A1183120313A009A109A00AF3
:1005E8000319A10A272B0A30F0000030F100210876
:1005F800F3002008F2000A128A1153270A128A11FE
:10060800700883120313A3002D08263E84002308D4
:10061800831380000A30F0000030F1002108F30055
:100628002008F2000A128A1134260A128A11710867
:1006380083120313A1007008A000FF30AD07031850
:10064800AE0AFF30AE0720082104031D2C2B2D2BEA
:10065800F72A220A031D312B322B432B392B013069
:10066800AB070318AC0A0030AC072B08263E840001
:10067800831300080319412B422B332B512B2208DB
:10068800A300A401A31BA4030530A5002308250289
:10069800AB0024090318013EAC002C08AE002B085F
:1006A800AD002E08803AFF0080307F02031D5E2BCC
:1006B80005302D02031C612B622B632B7B2BF5016C
:1006C800F50A831203132D08263E840083130008BD
:1006D800303E0A128A119B260A128A1101308312AF
:1006E8000313AD070318AE0A0030AE07552B0800F8
:1006F80083160313AA01A31F822B832B902BA00917
:10070800A109A209A309A00A0319A10A0319A20AA7
:100718000319A30AAA01AA0AA71F932B942BA32B98
:10072800A409A509A609A709A40A0319A50A031972
:10073800A60A0319A70A0130A8002808AA0600304B
:10074800AE000030AD000030AC000030AB00230834
:100758002204210420040319B22BB32B002CA90175
:10076800A90AC32B0130A8000310A00DA10DA20DEA
:10077800A30DA80BB82B0130A8002808A907A31FB0
:10078800C62BC72BB62B0130A8000310AB0DAC0D40
:10079800AD0DAE0DA80BC92B23082702031DDE2BB8
:1007A80022082602031DDE2B21082502031DDE2B4D
:1007B80020082402031CE12BE22BF12B2008A402C1
:1007C8002108031C210FA5022208031C220FA602E0
:1007D8002308031C230FA7022B1401300310A30CBA
:1007E800A20CA10CA00CFF3E031DF22B0130A902A4
:1007F800031DFF2B002CC72B2A080319042C052CDA
:10080800102CAB09AC09AD09AE09AB0A0319AC0A47
:100818000319AD0A0319AE0A2E08A3002D08A20079
:100828002C08A1002B08A000080083160313AA00B7
:100838002A08A60004300310A60CFF3E031D1F2C37
:100848002608A7002708A8002A080F39A6002608A6
:10085800A9002508031D312C322C362C83120313D2
:100868008810392C8312031388143A2C831203132B
:100878008815831603132808A60004300310A60D54
:10088800FF3E031D422C8312031308080F398316F9
:1008980003132604A7002708AB002B0883120313B1
:1008A8008800562C572C00008312031388115C2CE7
:1008B8005D2C00008312031388158316031329087F
:1008C800A60004300310A60DFF3E031D662C8312FC
:1008D800031308080F39831603132604A7002708F3
:1008E800AB002B088312031388007A2C7B2C0000A2
:1008F800831203138811802C812C00000A128A119C
:1009080088240A128A110800F03083160313A00005
:10091800200888048312031308158810932C831267
:1009280003138815972C83120313080883160313DF
:10093800A00004300310A00CFF3E031D9E2C2008CD
:10094800A1002108A4002408A00003300310A00D72
:10095800FF3E031DAA2C0310200DA1002108A400AE
:10096800B52C831203138811B92CBA2C00008312FA
:1009780003138815BF2C8312031308088316031367
:10098800A00004300310A00CFF3E031DC62C200855
:10099800A1002108A3000F30A0002008A305240807
:1009A8002304A0002008A40024088039A0002008FF
:1009B800A200DE2C831203138811E22CE32C000022
:1009C800831603132208031DEA2CEB2C932C8312A5
:1009D800031308110F3083160313A000200888059D
:1009E800080083120313A100552D210884000A1260
:1009F8008A1500200A128A11253A031D042D052D97
:100A0800412D0130FC007C08A107210884000A124E
:100A18008A1500200A128A11D03EFC007C08A0002A
:100A2800A01B172D182D282D2008803A783E031872
:100A38001E2D1F2D282DF501F50A20080A128A11EE
:100A48009B260A128A114F2DF501F50A25300A1244
:100A58008A119B260A128A11F501F50A83120313DB
:100A6800210884000A128A1500200A128A110A1223
:100A78008A119B260A128A114F2DF501F50A2108C1
:100A880084000A128A1500200A128A110A128A1191
:100A98009B260A128A110130FC007C08831203137A
:100AA800A107210884000A128A1500200A128A1157
:100AB800003A031D602D612DF92C080083160313DD
:100AC800AE00C33083160313AD00CC30AC00AC0BC2
:100AD8006B2DAD0B6B2D00000F3083160313AC008C
:100AE8002C0888058811881008110F30AC002C08D4
:100AF800831203138805881108118810832D831227
:100B0800031388158816882D892D00008312031376
:100B180088118E2D8F2D00000A128A1188240A123E
:100B28008A1183160313A50128300A128A11192481
:100B38000A128A1183160313A5012E080C380A120B
:100B48008A1119240A128A1183160313A501403049
:100B58000A128A1119240A128A1183160313AF0183
:100B6800A501A50A2F08903E8400831700080A12E1
:100B78008A1119240A128A11013083160313AC0052
:100B88002C08AF0740302F02031CCB2DCC2DB42DE1
:100B98000800F030F00070088316031388048312ED
:100BA800031308158810D82D831203138815DC2D1C
:100BB800831203130808F00004300310F00CFF3E02
:100BC800031DE12D7008F1007108F4007408F000AD
:100BD80003300310F00DFF3E031DED2D0310700DC3
:100BE800F1007108F400F82D831203138811FC2D0D
:100BF800FD2D0000831203138815022E83120313A0
:100C08000808F00004300310F00CFF3E031D072E07
:100C18007008F1007108F3000F30F0007008F30558
:100C280074087304F0007008F40074088039F00048
:100C38007008F2001F2E831203138811232E242E0E
:100C480000007208031D292E2A2ED82D83120313A3
:100C580008110F30F0007008831603138805080088
:100C6800F601F11F382E392E402EF009F109F00A4D
:100C78000319F10AF601F60AF31F432E442E4D2EEE
:100C8800F209F309F20A0319F30A0130F4007408AF
:100C9800F606F701F801700871040319542E552E51
:100CA8008C2EF501F50A632E01300310F00DF10DBD
:100CB800FF3E031D592E0130F4007408F507F11F9B
:100CC800662E672E582E01300310F70DF80DFF3EE3
:100CD800031D682E71087302031D742E70087202BA
:100CE800031C772E782E7F2E7008F2027108031CE1
:100CF800F303F302771401300310F10CF00CFF3EFC
:100D0800031D802E0130F502031D8B2E8C2E672EBD
:100D180076080319902E912E962EF709F809F70AEE
:100D28000319F80A7808F1007708F0000800FA00BB
:100D38007A08F60004300310F60CFF3E031D9F2EC0
:100D48007608F7007708F8007A080F39F600760871
:100D5800F9007508031DB12EB22EB62E83120313A7
:100D68008810B92E831203138814BA2E8312031322
:100D780088157808F60004300310F60DFF3E031DB1
:100D8800C02E08080F397604F7007708FB007B08A7
:100D98008800CE2ECF2E0000831203138811D42E84
:100DA800D52E00008312031388157908F600043045
:100DB8000310F60DFF3E031DDC2E08080F397604DC
:100DC800F7007708FB007B088800EA2EEB2E00006E
:100DD800831203138811F02EF12E00000A128A11D3
:100DE800CD250A128A11080083160313A601A31F32
:100DF800FE2EFF2E062FA209A309A20A0319A30A91
:100E0800A601A60AA11F092F0A2F0F2FA009A109C1
:100E1800A00A0319A10A200821040319142F152F69
:100E2800442FA501A50A232F01300310A00DA10D01
:100E3800FF3E031D192F0130A4002408A507A11F98
:100E4800262F272F182F21082302031D2D2F2008B6
:100E58002202031C302F312F372F2008A20221082D
:100E6800031CA303A30201300310A10CA00CFF3E36
:100E7800031D382F0130A502031D432F442F272FB0
:100E880026080319482F492F4E2FA209A309A20AA1
:100E98000319A30A2308A1002208A0000800F601EC
:100EA800F31F572F582F5F2FF209F309F20A03197E
:100EB800F30AF601F60AF11F622F632F682FF00973
:100EC800F109F00A0319F10A7008710403196D2F6A
:100ED8006E2F9D2FF501F50A7C2F01300310F00DC0
:100EE800F10DFF3E031D722F0130F4007408F50761
:100EF800F11F7F2F802F712F71087302031D862F1A
:100F080070087202031C892F8A2F902F7008F20232
:100F18007108031CF303F30201300310F10CF00C09
:100F2800FF3E031D912F0130F502031D9C2F9D2FBD
:100F3800802F76080319A12FA22FA72FF209F309F2
:100F4800F20A0319F30A7308F1007208F0000800A6
:100F58000C34123412340C340034003400340034AD
:100F6800003404340E341F340E3404340034003496
:100F780004340434043404341F340E340434003488
:100F88000A34153411340A3404340034003400347B
:100F98000A341F341F340E3404340034003400344F
:100FA8000034003400340034003400340034003499
:100FB8000034003400340034003400340034003489
:100FC8000034003400340034003400340034003479
:100FD8007E088A007F0882000A128A11EC270A120A
:100FE8008A118000840A04087D0603190034FF0A68
:060FF8000319FE0AF02FB0
:1010000008308A000408840A8207003445344E34CC
:101010005434453452342034523450344D34003436
:10102000563441344C34553445343A342034003449
:1010300053345434413452345434003453345434DB
:101040004F34503400342034523470346D34003412
:101DF80083160313CC01CD01831203138501080058
:101E08000130831603138600810101170B168B1707
:101E18000B17080008340C34043406340234033435
:101E280001340934013400340034003483160313B8
:101E38008501831203138501013083160313CC0037
:101E48000030CD00080083160313850183120313A5
:101E58008501013083160313CC000030CD00080043
:101E680083120313870183160313071087100711C2
:101E780087110616861606178617811308006E3016
:101E8800F0007008F100502F0A128A1116220A1267
:101E98008A15F0007008F1006E3071060319552F8D
:101EA800562F482F710808003734383439342F3406
:101EB80034343534363478343134323433342D34A0
:101EC800533430343D342B34093400340C3400346A
:101ED80006340034033400348B138B1C742F752F95
:101EE8007B2F0A128A1130210A128A158B108B1740
:101EF800831203133B08FF003A088A00390884005C
:101F0800380E8300FE0E7E0E09000A128A15272756
:101F18000A128A150A128A1504270A128A1500302D
:101F28000A128A1162250A128A15C8300A128A1101
:101F380048200A128A150A128A111228F401F5019A
:101F4800701CA72FA82FAE2F7208F4070318F50AE4
:101F58007308F50701300310F20DF30DFF3E031D62
:101F6800AF2F01300310F10CF00CFF3E031DB62F0C
:101F780070087104031DC12FC22FA42F7508F1002A
:101F88007408F000080083120313AA01AB010A12B7
:101F98008A1543270A128A15F2007208831203135E
:101FA800AC002C08F2002A08203E84007208831333
:101FB80080000130AA070318AB0A0030AB070A12E9
:101FC8008A1543270A128A15F2007208831203132E
:101FD800AC0053302C06031DF22FF32FD52F2A08FF
:101FE800203E8400831380010130AA070318AB0A3E
:081FF8000030AB0720300800A7
:02400E00FA3F77
:00000001FF
